:020000040800F2
:1000000000000120490A0008B1090008B9090008E8
:10001000C1090008C9090008D10900080000000052
:10002000000000000000000000000000D9090008E6
:10003000E709000800000000F5090008030A0008AD
:10004000990A0008990A0008990A0008990A000804
:10005000990A0008990A0008990A0008990A0008F4
:10006000990A0008990A0008990A0008990A0008E4
:10007000990A0008990A0008990A0008990A0008D4
:10008000990A0008990A0008990A0008000000006F
:10009000000000000000000000000000990A0008B5
:1000A000990A0008990A0008990A0008990A0008A4
:1000B000990A0008990A0008990A0008990A000894
:1000C000990A0008990A0008990A0008990A000884
:1000D000990A0008990A0008990A0008000000001F
:1000E000990A0008990A0008990A0008000000000F
:1000F000000000000000000000000000990A000855
:1001000000000000990A0008990A0008990A0008EE
:1001100000000000000000000000000000000000DF
:10012000990A0008110A0008990A0008990A0008AB
:10013000990A000800000000000000000000000014
:10014000000000000000000000000000990A000804
:10015000990A0008990A0008990A0008990A0008F3
:10016000990A0008990A0008000000000000000039
:10017000000000000000000000000000000000007F
:1001800000000000990A00080000000000000000C4
:04019000990A0008C0
:1001940010B5054C237833B9044B13B10448AFF3BD
:1001A40000800123237010BD0C000020000000001B
:1001B4003031000808B5034B1BB103490348AFF3C2
:1001C400008008BD0000000010000020303100084D
:1001D40053B94AB9002908BF00281CBF4FF0FF31AA
:1001E4004FF0FF3000F06AB9ADF1080C6DE904CEB0
:1001F40000F006F8DDF804E0DDE9022304B07047FE
:100204002DE9F047089D0C46002B4ED194468C45B1
:100214008646B2FA82F262D94AB1C2F12003914011
:1002240020FA03F30CFA02FC194300FA02FE4FEA27
:100234001C471FFA8CF6B1FBF7F44FEA1E4307FB89
:10024400141143EA014304FB06F199420AD91CEB59
:10025400030304F1FF3080F01281994240F20F81D0
:10026400023C6344591A1FFA8EF3B1FBF7F007FB03
:10027400101143EA014300FB06F69E420AD91CEB27
:10028400030300F1FF3180F0FC809E4240F2F980CC
:10029400634402389B1B40EA044000211DB1D34053
:1002A4000022C5E90032BDE8F0878B4205D90DB1C3
:1002B400C5E9000100210846F5E7B3FA83F10029F6
:1002C40046D1A34202D39042C0F0F080861A64EB78
:1002D40003030120002DE6D0C5E90063E3E7002A0B
:1002E40040F09080A1EB0C044FEA1C481FFA8CF7F5
:1002F4000121B4FBF8F64FEA1E4308FB164443EA17
:10030400044307FB06F0984208D91CEB030306F1EB
:10031400FF3402D2984200F2CD8026461C1A1FFAFE
:100324008EF3B4FBF8F008FB104443EA044300FBEB
:1003340007F79F4208D91CEB030300F1FF3402D2F4
:100344009F4200F2B0802046DB1B40EA0640A5E74E
:10035400C1F120068B4022FA06F71F4320FA06FC5F
:1003640004FA01F343EA0C03F44000FA01F8380CF0
:100374004FEA1349B4FBF0FE1FFA87FC00FB1E444E
:1003840049EA04440EFB0CF9A14502FA01F20AD928
:100394003C190EF1FF3A80F08480A14540F281803F
:1003A400AEF1020E3C44A4EB09041FFA83F9B4FB3A
:1003B400F0F300FB134449EA044403FB0CFCA4459A
:1003C40007D93C1903F1FF3067D2A44565D9023B34
:1003D4003C4443EA0E40A0FB0293A4EB0C049C4271
:1003E400CE469C4651D34ED055B1B8EB0E0364EBC8
:1003F4000C0404FA06F6CB401E43CC40C5E9006465
:10040400002150E7C2F1200320FA03F10CFA02FCA8
:1004140024FA03F394400C434FEA1C4800FA02FE0A
:100424001FFA8CF7B3FBF8F008FB1031230C43EAF6
:10043400014300FB07F1994208D91CEB030300F1C7
:10044400FF362CD299422AD9023863445B1AA4B2EB
:10045400B3FBF8F108FB113344EA034401FB07F34F
:10046400A34208D91CEB040401F1FF3613D2A342C2
:1004740011D902396444E41A41EA004139E70446D7
:10048400F0E6084606E7C845AED2B9EB020E63EBC8
:10049400070C0138A8E73146EDE7034699E73046F3
:1004A400D4E7D6467FE7634402384DE70646234641
:1004B40008460FE7023E634430E700BF704700BFC1
:1004C40080B586B000AFF860B9607A60FB681A0442
:1004D400BB681B021A437B6813433B6117237B6190
:1004E40016E001227B6902FA03F31A463B691340C2
:1004F400002B05D00D4A7B693C2142F8231004E00F
:100504000A4A7B691E2142F823107B69013B7B6107
:100514007B69002BE5DC1823044A0021044801F020
:1005240019FE00BF1837BD4680BD00BFD0000020B3
:100534002800002080B500AF00F0AEFA00F00EF8FD
:1005440000F036F900F014F900F072F86522FF218A
:100554000520FFF7B5FF00BFFDE7000080B594B0AC
:1005640000AF07F1200330220021184602F0B2FD4B
:1005740007F10C0300221A605A609A60DA601A616B
:100584000023BB60284B1B6C274A43F08053136441
:10059400254B1B6C03F08053BB60BB6800237B605E
:1005A400224B1B6823F44043204A43F40043136066
:1005B4001E4B1B6803F440437B607B6801233B6252
:1005C4004FF4A0237B620223BB634FF48003FB63DD
:1005D40003233B6454237B640223BB640423FB6432
:1005E40007F12003184601F0E9F80346002B01D077
:1005F40000F020F90F23FB6002233B6100237B61A1
:100604004FF48053BB610023FB6107F10C0302210B
:10061400184601F04BFB0346002B01D000F00AF909
:1006240000BF5037BD4680BD003802400070004016
:1006340080B596B000AF07F1480300221A605A60F3
:100644009A60DA6007F1400300221A605A6007F1E9
:10065400240300221A605A609A60DA601A615A61AF
:100664009A613B1D20220021184602F033FD3E4BC7
:100674003E4A1A603C4B00225A603B4B00229A606F
:10068400394B5922DA60384B00221A61364B00226A
:100694005A61354B00229A61334801F0B3FC03469A
:1006A400002B01D000F0C6F84FF48053BB6407F16F
:1006B400480319462C4801F0BFFF0346002B01D024
:1006C40000F0B8F8284801F0ECFC0346002B01D0F8
:1006D40000F0B0F800233B6400237B6407F140037F
:1006E4001946214802F036FC0346002B01D000F0E5
:1006F400A1F860237B620023BB620023FB6200231A
:100704003B6300237B630023BB630023FB6307F18C
:10071400240300221946144801F0CCFE0346002BA2
:1007240001D000F087F800237B600023BB60002326
:10073400FB6000233B6100237B614FF40053BB61EA
:1007440000233B623B1D1946074802F071FC034637
:10075400002B01D000F06EF8034800F0EDF800BF64
:100764005837BD4680BD00BF28000020000001406E
:1007740080B582B000AF00237B600C4B1B6B0B4A2F
:1007840043F480031363094B1B6B03F480037B6006
:100794007B6800220021392000F0CBFA392000F0D8
:1007A400E4FA00BF0837BD4680BD00BF00380240F0
:1007B40080B588B000AF07F10C0300221A605A60BC
:1007C4009A60DA601A610023BB60184B1B6B174AEE
:1007D40043F080031363154B1B6B03F08003BB6072
:1007E400BB6800237B60114B1B6B104A43F0010371
:1007F40013630E4B1B6B03F001037B607B680022C9
:1008040002210B4800F0C0FF0223FB6001233B617F
:1008140000237B610023BB6107F10C0319460448E4
:1008240000F02EFE00BF2037BD4680BD00380240D8
:100834000000024080B400AF72B600BF00BFFDE705
:1008440080B483B000AF00237B60104B5B6C0F4A15
:1008540043F4804353640D4B5B6C03F480437B602F
:100864007B6800233B60094B1B6C084A43F08053B0
:100874001364064B1B6C03F080533B603B6800BF62
:100884000C37BD465DF8047B704700BF003802405A
:1008940080B584B000AF78607B681B68224A9342BD
:1008A4003DD10023FB60214B5B6C204A43F00103E4
:1008B40053641E4B5B6C03F00103FB60FB681C4B31
:1008C4001C4A1A601A4B4FF040625A60184B40227F
:1008D4009A60174B0022DA60154B4FF480621A615C
:1008E400134B4FF400625A61114B4FF400529A615A
:1008F4000F4B0022DA610E4B00221A620C4B0022CD
:100904005A620B4800F04CFA0346002B01D0FFF763
:1009140091FF7B68064A5A62054A7B68936300BF6D
:100924001037BD4680BD00BF0000014000380240C2
:10093400700000202864024080B588B000AF786061
:1009440007F10C0300221A605A609A60DA601A6197
:100954007B681B68124A93421ED10023BB60114B73
:100964001B6B104A43F0010313630E4B1B6B03F024
:100974000103BB60BB684FF48073FB6002233B61DF
:1009840000237B610023BB610123FB6107F10C039E
:100994001946054800F074FD00BF2037BD4680BDF0
:1009A40000000140003802400000024080B400AF63
:1009B40000BFFDE780B400AF00BFFDE780B400AF27
:1009C40000BFFDE780B400AF00BFFDE780B400AF17
:1009D40000BFFDE780B400AF00BFBD465DF8047BF7
:1009E400704780B400AF00BFBD465DF8047B70471C
:1009F40080B400AF00BFBD465DF8047B704780B58E
:100A040000AF00F09BF800BF80BD000080B500AFD0
:100A1400024800F0CBFA00BF80BD00BF7000002088
:100A240080B400AF064BD3F88830054A43F4700312
:100A3400C2F8883000BFBD465DF8047B704700BF34
:100A440000ED00E0DFF834D0FFF7EAFF0C480D4971
:100A54000D4A002302E0D458C4500433C4188C4215
:100A6400F9D30A4A0A4C002301E013600432A2427B
:100A7400FBD302F037FBFFF75DFD70470000012058
:100A8400000000200C000020703100080C00002041
:100A9400D4090020FEE7000080B500AF0E4B1B68B0
:100AA4000D4A43F4007313600B4B1B680A4A43F46A
:100AB40080631360084B1B68074A43F48073136018
:100AC400032000F02BF90F2000F008F8FFF7B8FE20
:100AD4000023184680BD00BF003C024080B582B0B0
:100AE40000AF7860124B1A68124B1B7819464FF40A
:100AF4007A73B3FBF1F3B2FBF3F3184600F043F956
:100B04000346002B01D001230EE07B680F2B0AD88B
:100B1400002279684FF0FF3000F00BF9064A7B6839
:100B24001360002300E0012318460837BD4680BD4A
:100B340000000020080000200400002080B400AF62
:100B4400064B1B781A46064B1B681344044A136071
:100B540000BFBD465DF8047B704700BF080000205D
:100B6400D009002080B400AF034B1B681846BD4673
:100B74005DF8047B704700BFD009002080B485B0C5
:100B840000AF78607B6803F00703FB600C4BDB6805
:100B9400BB60BA684FF6FF031340BB60FB681A02E0
:100BA400BB68134343F0BF6343F40033BB60044AA0
:100BB400BB68D36000BF1437BD465DF8047B704743
:100BC40000ED00E080B400AF044BDB681B0A03F0C7
:100BD40007031846BD465DF8047B704700ED00E04E
:100BE40080B483B000AF0346FB7197F90730002B44
:100BF4000BDBFB7903F01F02074997F907305B0908
:100C0400012000FA02F241F8232000BF0C37BD4650
:100C14005DF8047B704700BF00E100E080B483B05E
:100C240000AF03463960FB7197F90730002B0ADBEC
:100C34003B68DAB20C4997F907301201D2B20B447F
:100C440083F800230AE03B68DAB20849FB7903F031
:100C54000F03043B1201D2B20B441A7600BF0C37C7
:100C6400BD465DF8047B704700E100E000ED00E064
:100C740080B489B000AFF860B9607A60FB6803F0B3
:100C84000703FB61FB69C3F10703042B28BF04239B
:100C9400BB61FB690433062B02D9FB69033B00E00B
:100CA40000237B614FF0FF32BB6902FA03F3DA439E
:100CB400BB681A407B699A404FF0FF317B6901FAA7
:100CC40003F3D9437B680B40134318462437BD46CE
:100CD4005DF8047B7047000080B582B000AF786097
:100CE4007B68013BB3F1807F01D301230FE00A4A03
:100CF4007B68013B53600F214FF0FF30FFF78EFFFD
:100D0400054B00229A60044B07221A600023184600
:100D14000837BD4680BD00BF10E000E080B582B05A
:100D240000AF78607868FFF729FF00BF0837BD4639
:100D340080BD80B586B000AF0346B9607A60FB73AE
:100D440000237B61FFF73EFF78617A68B9687869B0
:100D5400FFF78EFF024697F90F3011461846FFF74A
:100D64005DFF00BF1837BD4680BD80B582B000AFBF
:100D74000346FB7197F907301846FFF731FF00BFB0
:100D84000837BD4680BD80B582B000AF7860786812
:100D9400FFF7A2FF034618460837BD4680BD000092
:100DA40080B586B000AF786000237B61FFF7DAFE80
:100DB40038617B68002B01D1012399E07B68022212
:100DC40083F835207B68002283F834207B681B6815
:100DD4001A687B681B6822F001021A600FE0FFF7B3
:100DE400C1FE02463B69D31A052B08D97B68202231
:100DF4005A657B68032283F83520032378E07B68F7
:100E04001B681B6803F00103002BE8D17B681B6897
:100E14001B687B617A69384B13407B617B685A6835
:100E24007B689B681A437B68DB681A437B681B6991
:100E34001A437B685B691A437B689B691A437B6826
:100E4400DB691A437B681B6A13437A6913437B612A
:100E54007B685B6A042B07D17B68DA6A7B681B6B4F
:100E640013437A6913437B617B681B687A691A6050
:100E74007B681B685B697B617B6923F007037B618B
:100E84007B685B6A7A6913437B617B685B6A042BCA
:100E940017D17B689B6A7A6913437B617B68DB6A41
:100EA400002B0ED0786800F06FFA0346002B08D0B0
:100EB4007B6840225A657B68012283F83520012330
:100EC40016E07B681B687A695A61786800F026FA34
:100ED4000346FB607B68DB6D3F229A40FB689A60A7
:100EE4007B6800225A657B68012283F83520002341
:100EF40018461837BD4680BD3F8010F080B586B0D7
:100F040000AFF860B9607A603B600023FB75FB6852
:100F14009B6D3B61FB6893F83430012B01D10223B4
:100F240040E0FB68012283F83420FB6893F83530F5
:100F3400DBB2012B2FD1FB68022283F83520FB683A
:100F440000225A653B687A68B968F86800F0B8F915
:100F5400FB68DB6D3F229A403B699A60FB681B6823
:100F64001A68FB681B6842F016021A60FB681B6C67
:100F7400002B07D0FB681B681A68FB681B6842F0EB
:100F840008021A60FB681B681A68FB681B6842F059
:100F940001021A6005E0FB68002283F83420022372
:100FA400FB75FB7D18461837BD4680BD80B586B0FD
:100FB40000AF78600023BB608E4B1B688E4AA2FB97
:100FC40003239B0A7B617B689B6D3B613B691B68C8
:100FD400FB607B68DB6D08229A40FB681340002BA2
:100FE4001AD07B681B681B6803F00403002B13D022
:100FF4007B681B681A687B681B6822F004021A600D
:101004007B68DB6D08229A403B699A607B685B6D64
:1010140043F001027B685A657B68DB6D01229A40CC
:10102400FB681340002B12D07B681B685B6903F0DC
:101034008003002B0BD07B68DB6D01229A403B6957
:101044009A607B685B6D43F002027B685A657B683B
:10105400DB6D04229A40FB681340002B12D07B689E
:101064001B681B6803F00203002B0BD07B68DB6D4D
:1010740004229A403B699A607B685B6D43F00402EA
:101084007B685A657B68DB6D10229A40FB681340CD
:10109400002B43D07B681B681B6803F00803002BFC
:1010A4003CD07B68DB6D10229A403B699A607B6878
:1010B4001B681B6803F48023002B18D07B681B6813
:1010C4001B6803F40023002B08D17B681B6C002BE6
:1010D40024D07B681B6C786898471FE07B689B6C06
:1010E400002B1BD07B689B6C7868984716E07B6864
:1010F4001B681B6803F48073002B07D17B681B6893
:101104001A687B681B6822F008021A607B681B6CF3
:10111400002B03D07B681B6C786898477B68DB6D79
:1011240020229A40FB681340002B00F08F807B68DC
:101134001B681B6803F01003002B00F087807B689A
:10114400DB6D20229A403B699A607B6893F83530C6
:10115400DBB2052B36D17B681B681A687B681B6879
:1011640022F016021A607B681B685A697B681B6848
:1011740022F080025A617B681B6C002B03D17B68D0
:101184009B6C002B07D07B681B681A687B681B6804
:1011940022F008021A607B68DB6D3F229A403B69AB
:1011A4009A607B68012283F835207B68002283F8EB
:1011B40034207B681B6D002B7ED07B681B6D7868A8
:1011C400984779E07B681B681B6803F48023002B35
:1011D4001DD07B681B681B6803F40023002B0DD112
:1011E4007B685B6C002B31D07B685B6C78689847BC
:1011F4002CE000BF00000020B5814E1B7B68DB6B38
:10120400002B23D07B68DB6B786898471EE07B68F3
:101214001B681B6803F48073002B0FD17B681B6869
:101224001A687B681B6822F010021A607B6801222E
:1012340083F835207B68002283F834207B68DB6BDD
:10124400002B03D07B68DB6B786898477B685B6D09
:10125400002B32D07B685B6D03F00103002B22D09E
:101264007B68052283F835207B681B681A687B68D5
:101274001B6822F001021A60BB680133BB607A6903
:101284009A4207D37B681B681B6803F00103002B99
:10129400F2D100E000BF7B68012283F835207B682F
:1012A400002283F834207B68DB6C002B05D07B683C
:1012B400DB6C7868984700E000BF1837BD4680BDF6
:1012C40080B485B000AFF860B9607A603B60FB68B9
:1012D4001B681A68FB681B6822F480221A60FB688A
:1012E4001B683A685A60FB689B68402B08D1FB680E
:1012F4001B687A689A60FB681B68BA68DA6007E062
:10130400FB681B68BA689A60FB681B687A68DA60D5
:1013140000BF1437BD465DF8047B704780B485B0C8
:1013240000AF78607B681B68DBB2103B144AA2FBF9
:1013340003231B09FB60134AFB6813441B781A46FA
:101344007B68DA65FB68032B09D97B681B6823F487
:101354007F7323F003031A1D7B689A6507E07B689B
:101364001B6823F47F7323F003037A6893657B6817
:101374009B6D18461437BD465DF8047B704700BF6B
:10138400ABAAAAAA5831000880B485B000AF78602F
:101394000023FB737B689B6ABB607B689B69002BA3
:1013A4001FD1BB68032B56D801A252F823F000BF0B
:1013B400C5130008D7130008C51300085B14000800
:1013C4007B68DB6A03F08073002B46D00123FB7338
:1013D40043E07B68DB6AB3F1C07F40D10123FB7338
:1013E4003DE07B689B69B3F5005F21D1BB68032BAB
:1013F40037D801A252F823F00D1400081314000882
:101404000D140008251400080123FB7330E07B68E9
:10141400DB6A03F08073002B25D00123FB7322E0E9
:101424007B68DB6AB3F1C07F1FD10123FB731CE02F
:10143400BB68022B03D9BB68032B03D018E001233C
:10144400FB7315E07B68DB6A03F08073002B0ED01E
:101454000123FB730BE000BF0AE000BF08E000BFFC
:1014640006E000BF04E000BF02E000BF00E000BFF0
:10147400FB7B18461437BD465DF8047B704700BFFC
:1014840080B489B000AF7860396000237B610023A9
:101494003B610023BB610023FB6159E10122FB692D
:1014A40002FA03F37B613B681B687A6913403B6172
:1014B4003A697B699A4240F048813B685B6803F073
:1014C4000303012B05D03B685B6803F00303022B85
:1014D40030D17B689B68BB61FB695B00032202FA25
:1014E40003F3DB43BA691340BB613B68DA68FB6909
:1014F4005B0002FA03F3BA691343BB617B68BA6900
:101504009A607B685B68BB610122FB6902FA03F3A2
:10151400DB43BA691340BB613B685B681B0903F09A
:101524000102FB6902FA03F3BA691343BB617B68E6
:10153400BA695A603B685B6803F00303032B17D056
:101544007B68DB68BB61FB695B00032202FA03F37F
:10155400DB43BA691340BB613B689A68FB695B0073
:1015640002FA03F3BA691343BB617B68BA69DA60B0
:101574003B685B6803F00303022B23D1FB69DA08A1
:101584007B68083253F82230BB61FB6903F0070320
:101594009B000F2202FA03F3DB43BA691340BB61D9
:1015A4003B681A69FB6903F007039B0002FA03F323
:1015B400BA691343BB61FB69DA087B680832B9690D
:1015C40043F822107B681B68BB61FB695B00032244
:1015D40002FA03F3DB43BA691340BB613B685B68FF
:1015E40003F00302FB695B0002FA03F3BA691343D5
:1015F400BB617B68BA691A603B685B6803F440337B
:10160400002B00F0A2800023FB60574B5B6C564A12
:1016140043F480435364544B5B6C03F48043FB609A
:10162400FB68524AFB699B08023352F82330BB61C2
:10163400FB6903F003039B000F2202FA03F3DB436D
:10164400BA691340BB617B68494A934219D07B68ED
:10165400484A934213D07B68474A93420DD07B6833
:10166400464A934207D07B68454A934201D10423FA
:1016740008E0072306E0032304E0022302E0012339
:1016840000E00023FA6902F0030292009340BA6971
:101694001343BB613549FB699B080233BA6941F8BE
:1016A4002320384B9B68BB613B69DB43BA69134019
:1016B400BB613B685B6803F48013002B03D0BA69F9
:1016C4003B691343BB612F4ABB6993602D4BDB68B5
:1016D400BB613B69DB43BA691340BB613B685B6830
:1016E40003F40013002B03D0BA693B691343BB61B5
:1016F400244ABB69D360234B5B68BB613B69DB4312
:10170400BA691340BB613B685B6803F40033002B88
:1017140003D0BA693B691343BB611A4ABB6953607E
:10172400184B1B68BB613B69DB43BA691340BB615F
:101734003B685B6803F48033002B03D0BA693B69D0
:101744001343BB610F4ABB691360FB690133FB613F
:10175400FB690F2B7FF6A2AE00BF00BF2437BD4646
:101764005DF8047B704700BF003802400038014038
:10177400000002400004024000080240000C024045
:1017840000100240003C014080B483B000AF786098
:101794000B467B8013467B707B78002B03D07A88C2
:1017A4007B689A6103E07B881A047B689A6100BFB6
:1017B4000C37BD465DF8047B7047000080B586B0E9
:1017C40000AF78607B68002B01D1012367E27B685E
:1017D4001B6803F00103002B75D0884B9B6803F052
:1017E4000C03042B0CD0854B9B6803F00C03082BD3
:1017F40012D1824B5B6803F48003B3F5800F0BD1E5
:101804007E4B1B6803F40033002B5BD07B685B6862
:10181400002B57D1012342E27B685B68B3F5803F1C
:1018240006D1764B1B68754A43F4803313601DE080
:101834007B685B68B3F5A02F0CD1704B1B686F4AB3
:1018440043F4802313606D4B1B686C4A43F480336C
:1018540013600BE0694B1B68684A23F48033136000
:10186400664B1B68654A23F4802313607B685B68BE
:10187400002B13D0FFF776F9386108E0FFF772F90F
:1018840002463B69D31A642B01D9032307E25B4B5D
:101894001B6803F40033002BF0D014E0FFF762F967
:1018A400386108E0FFF75EF902463B69D31A642BFE
:1018B40001D90323F3E1514B1B6803F40033002BDC
:1018C400F0D100E000BF7B681B6803F00203002B2B
:1018D40063D04A4B9B6803F00C03002B0BD0474B9F
:1018E4009B6803F00C03082B1CD1444B5B6803F486
:1018F4008003002B16D1414B1B6803F00203002B1D
:1019040005D07B68DB68012B01D00123C7E13B4B89
:101914001B6823F0F8027B681B69DB00374913431B
:101924000B603AE07B68DB68002B20D0344B01224B
:101934001A60FFF717F9386108E0FFF713F9024658
:101944003B69D31A022B01D90323A8E12B4B1B6853
:1019540003F00203002BF0D0284B1B6823F0F8029D
:101964007B681B69DB00254913430B6015E0244B9E
:1019740000221A60FFF7F6F8386108E0FFF7F2F882
:1019840002463B69D31A022B01D9032387E11B4B7F
:101994001B6803F00203002BF0D17B681B6803F083
:1019A4000803002B36D07B685B69002B16D0154BDF
:1019B40001221A60FFF7D6F8386108E0FFF7D2F881
:1019C40002463B69D31A022B01D9032367E10B4B6F
:1019D4005B6F03F00203002BF0D01BE0094B0022E5
:1019E4001A60FFF7BFF838610EE0FFF7BBF8024654
:1019F4003B69D31A022B07D9032350E10038024074
:101A040000004742800E4742884B5B6F03F002039D
:101A1400002BEAD17B681B6803F00403002B00F061
:101A240097800023FB75814B1B6C03F08053002BC4
:101A34000FD10023BB607D4B1B6C7C4A43F0805369
:101A440013647A4B1B6C03F08053BB60BB680123A7
:101A5400FB75774B1B6803F48073002B18D1744B10
:101A64001B68734A43F480731360FFF77BF8386193
:101A740008E0FFF777F802463B69D31A022B01D935
:101A840003230CE16A4B1B6803F48073002BF0D032
:101A94007B689B68012B06D1644B1B6F634A43F040
:101AA400010313671CE07B689B68052B0CD15F4B1B
:101AB4001B6F5E4A43F0040313675C4B1B6F5B4A66
:101AC40043F0010313670BE0584B1B6F574A23F095
:101AD40001031367554B1B6F544A23F00403136728
:101AE4007B689B68002B15D0FFF73CF838610AE04F
:101AF400FFF738F802463B69D31A41F28832934221
:101B040001D90323CBE0494B1B6F03F00203002BE5
:101B1400EED014E0FFF726F838610AE0FFF722F868
:101B240002463B69D31A41F28832934201D9032316
:101B3400B5E03E4B1B6F03F00203002BEED1FB7D9F
:101B4400012B05D1394B1B6C384A23F080531364A5
:101B54007B689B69002B00F0A180344B9B6803F0E9
:101B64000C03082B5CD07B689B69022B41D1314B61
:101B740000221A60FEF7F6FF386108E0FEF7F2FF74
:101B840002463B69D31A022B01D9032387E0274B72
:101B94001B6803F00073002BF0D17B68DA697B6863
:101BA4001B6A1A437B685B6A9B011A437B689B6AC6
:101BB4005B08013B1B041A437B68DB6A1B061B4959
:101BC40013434B601B4B01221A60FEF7CBFF3861B5
:101BD40008E0FEF7C7FF02463B69D31A022B01D97E
:101BE40003235CE0114B1B6803F00073002BF0D05F
:101BF40054E0104B00221A60FEF7B4FF386108E08D
:101C0400FEF7B0FF02463B69D31A022B01D9032326
:101C140045E0064B1B6803F00073002BF0D13DE058
:101C24007B689B69012B07D1012338E0003802400F
:101C340000700040600047421B4B5B68FB607B68A0
:101C44009B69012B28D0FB6803F480027B68DB6965
:101C54009A4221D1FB6803F03F027B681B6A9A42D7
:101C64001AD1FA6847F6C07313407A68526A92012F
:101C7400934211D1FB6803F440327B689B6A5B0892
:101C8400013B1B049A4207D1FB6803F070627B6836
:101C9400DB6A1B069A4201D0012300E000231846A8
:101CA4001837BD4680BD00BF0038024080B584B0FF
:101CB40000AF786039607B68002B01D10123CCE050
:101CC400684B1B6803F007033A689A420CD9654BCA
:101CD4003A68D2B21A70634B1B6803F007033A6880
:101CE4009A4201D00123B8E07B681B6803F0020329
:101CF400002B20D07B681B6803F00403002B05D065
:101D0400594B9B68584A43F4E05393607B681B68C3
:101D140003F00803002B05D0534B9B68524A43F44D
:101D240060439360504B9B6823F0F0027B689B6890
:101D34004D4913438B607B681B6803F00103002B40
:101D440044D07B685B68012B07D1474B1B6803F4C5
:101D54000033002B19D101237FE07B685B68022BE1
:101D640003D07B685B68032B07D13F4B1B6803F0F0
:101D74000073002B09D101236FE03B4B1B6803F078
:101D84000203002B01D1012367E0374B9B6823F04A
:101D940003027B685B68344913438B60FEF7E2FE01
:101DA400F8600AE0FEF7DEFE0246FB68D31A41F251
:101DB4008832934201D903234FE02B4B9B6803F0F5
:101DC4000C027B685B689B009A42EBD1254B1B6835
:101DD40003F007033A689A420CD2224B3A68D2B213
:101DE4001A70204B1B6803F007033A689A4201D02B
:101DF400012332E07B681B6803F00403002B08D046
:101E0400194B9B6823F4E0527B68DB681649134343
:101E14008B607B681B6803F00803002B09D0124B0E
:101E24009B6823F460427B681B69DB000E49134303
:101E34008B6000F021F802460B4B9B681B0903F0F2
:101E44000F030A49CB5C22FA03F3094A1360094BD6
:101E54001B681846FEF742FE002318461037BD469D
:101E640080BD00BF003C02400038024048310008F9
:101E740000000020040000202DE9B04F90B000AF16
:101E840000237B630023FB6300233B630023BB63CA
:101E9400594B9B6803F00C03082B0DD0082B00F260
:101EA400A180002B02D0042B03D09BE0534BBB63D7
:101EB4009BE0534BBB6398E04F4B5B6803F03F03DD
:101EC4007B634D4B5B6803F48003002B28D04A4BA3
:101ED4005B689B0900223B627A623B6AC3F3080099
:101EE4000021474B03FB01F2002300FB03F31344DF
:101EF400434AA0FB0212FA620A46BA62FA6A13441F
:101F0400FB627B6B0022BB61FA61D7E90623D7E948
:101F14000A01FEF75DF902460B461346FB6353E0E4
:101F2400354B5B689B0900223B617A613B69C3F3D3
:101F3400080A4FF0000B52465B464FF000004FF08A
:101F44000001590141EAD261500102460B46B2EB4D
:101F54000A0863EB0B094FF000024FF000034FEA4D
:101F6400891343EA98634FEA8812B2EB080463EBDF
:101F740009054FF000024FF00003EB0043EA5473ED
:101F8400E20014461D4614EB0A033B6045EB0B03C9
:101F94007B604FF000024FF00003D7E9004529466B
:101FA4008B02214643EA915321468A021046194680
:101FB4007B6B0022BB60FA60D7E90223FEF708F9C5
:101FC40002460B461346FB630B4B5B681B0C03F08A
:101FD400030301335B003B63FA6B3B6BB2FBF3F32C
:101FE400BB6302E0054BBB6300BFBB6B18464037C5
:101FF400BD46BDE8B08F00BF003802400024F400A5
:10200400808D5B0080B582B000AF78607B68002B68
:1020140001D1012341E07B6893F83D30DBB2002B12
:1020240006D17B68002283F83C207868FEF730FCF8
:102034007B68022283F83D207B681A687B6804333E
:102044001946104600F0AEFC7B68012283F8462056
:102054007B68012283F83E207B68012283F83F20BD
:102064007B68012283F840207B68012283F84120A9
:102074007B68012283F842207B68012283F8432095
:102084007B68012283F844207B68012283F8452081
:102094007B68012283F83D20002318460837BD469B
:1020A40080BD80B582B000AF78607B68002B01D121
:1020B400012341E07B6893F83D30DBB2002B06D16D
:1020C4007B68002283F83C20786800F039F87B684C
:1020D400022283F83D207B681A687B680433194622
:1020E400104600F05FFC7B68012283F846207B6881
:1020F400012283F83E207B68012283F83F207B681D
:10210400012283F840207B68012283F841207B6808
:10211400012283F842207B68012283F843207B68F4
:10212400012283F844207B68012283F845207B68E0
:10213400012283F83D20002318460837BD4680BDA0
:1021440080B483B000AF786000BF0C37BD465DF843
:10215400047B704780B586B000AFF860B9607A60E0
:102164007B800023FB75BB68002B09D1FB6893F8C7
:102174003E30DBB2022B0CBF01230023DBB222E092
:10218400BB68042B09D1FB6893F83F30DBB2022B08
:102194000CBF01230023DBB215E0BB68082B09D177
:1021A400FB6893F84030DBB2022B0CBF0123002301
:1021B400DBB208E0FB6893F84130DBB2022B0CBFC2
:1021C40001230023DBB2002B01D002235DE1BB68B5
:1021D400002B09D1FB6893F83E30DBB2012B0CBF16
:1021E40001230023DBB222E0BB68042B09D1FB6886
:1021F40093F83F30DBB2012B0CBF01230023DBB289
:1022040015E0BB68082B09D1FB6893F84030DBB2BA
:10221400012B0CBF01230023DBB208E0FB6893F819
:102224004130DBB2012B0CBF01230023DBB2002BB6
:1022340024D07B68002B02D07B88002B01D10123A2
:1022440023E1BB68002B04D1FB68022283F83E2003
:1022540016E0BB68042B04D1FB68022283F83F20FC
:102264000EE0BB68082B04D1FB68022283F84020EF
:1022740006E0FB68022283F8412001E0012304E127
:10228400BB680C2B00F2AE8001A252F823F000BF11
:10229400C9220008E9230008E9230008E92300080B
:1022A40011230008E9230008E9230008E9230008B2
:1022B40059230008E9230008E9230008E92300085A
:1022C400A1230008FB685B6A724ADA63FB685B6AF5
:1022D400714A1A64FB685B6A704ADA64FB68586A7C
:1022E4007968FB681B6834331A467B88FEF706FE60
:1022F4000346002B01D00123C7E0FB681B68DA68A2
:10230400FB681B6842F40072DA606EE0FB689B6A4B
:10231400604ADA63FB689B6A5F4A1A64FB689B6ADB
:102324005E4ADA64FB68986A7968FB681B6838332C
:102334001A467B88FEF7E2FD0346002B01D00123F9
:10234400A3E0FB681B68DA68FB681B6842F48062E0
:10235400DA604AE0FB68DB6A4E4ADA63FB68DB6AF0
:102364004D4A1A64FB68DB6A4C4ADA64FB68D86A33
:102374007968FB681B683C331A467B88FEF7BEFD10
:102384000346002B01D001237FE0FB681B68DA6859
:10239400FB681B6842F40062DA6026E0FB681B6B92
:1023A4003C4ADA63FB681B6B3B4A1A64FB681B6B91
:1023B4003A4ADA64FB68186B7968FB681B68403337
:1023C4001A467B88FEF79AFD0346002B01D00123B1
:1023D4005BE0FB681B68DA68FB681B6842F48052A8
:1023E400DA6002E00123FB7500BFFB7D002B4BD1BB
:1023F400FB681B680122B968184600F085FDFB687C
:102404001B68274A934207D1FB681B685A6CFB6818
:102414001B6842F400425A64FB681B68204A9342DA
:1024240018D0FB681B68B3F1804F13D0FB681B689E
:102434001C4A93420ED0FB681B681B4A934209D086
:10244400FB681B68194A934204D0FB681B68184A4E
:10245400934211D1FB681B689B6803F007033B613F
:102464003B69062B10D0FB681B681A68FB681B6865
:1024740042F001021A6007E0FB681B681A68FB68F7
:102484001B6842F001021A60FB7D18461837BD46EE
:1024940080BD00BF992800084129000807280008CA
:1024A400000001400004004000080040000C00400F
:1024B4000040014080B586B000AFF860B9607A6032
:1024C4000023FB75FB6893F83C30012B01D10223F8
:1024D400AEE0FB68012283F83C207B680C2B00F201
:1024E4009F8001A252F823F0212500082526000828
:1024F4002526000825260008612500082526000851
:102504002526000825260008A325000825260008FE
:102514002526000825260008E3250008FB681B681B
:10252400B968184600F0CAFAFB681B689A69FB6828
:102534001B6842F008029A61FB681B689A69FB6891
:102544001B6822F004029A61FB681B689969BB68E6
:102554001A69FB681B680A439A6164E0FB681B689C
:10256400B968184600F010FBFB681B689A69FB68A1
:102574001B6842F400629A61FB681B689A69FB68F5
:102584001B6822F480629A61FB681B689969BB68C6
:102594001B691A02FB681B680A439A6143E0FB68E3
:1025A4001B68B968184600F05BFBFB681B68DA69B6
:1025B400FB681B6842F00802DA61FB681B68DA6991
:1025C400FB681B6822F00402DA61FB681B68D969A6
:1025D400BB681A69FB681B680A43DA6123E0FB687D
:1025E4001B68B968184600F0A5FBFB681B68DA692C
:1025F400FB681B6842F40062DA61FB681B68DA69F5
:10260400FB681B6822F48062DA61FB681B68D96985
:10261400BB681B691A02FB681B680A43DA6102E0A3
:102624000123FB7500BFFB68002283F83C20FB7D7F
:1026340018461837BD4680BD80B584B000AF7860B9
:1026440039600023FB737B6893F83C30012B01D184
:102654000223B4E07B68012283F83C207B680222D9
:1026640083F83D207B681B689B68BB60BB6823F0D4
:102674007703BB60BB6823F47F43BB607B681B6844
:10268400BA689A603B681B68B3F5005F3ED0B3F547
:10269400005F00F28780B3F5805F00F08680B3F5B9
:1026A400805F7FD8702B1AD0702B7BD8602B50D0D2
:1026B400602B77D8502B3CD0502B73D8402B58D05C
:1026C400402B6FD8302B64D0302B6BD8202B60D0AC
:1026D400202B67D8002B5CD0102B5AD062E07B688B
:1026E40018683B6899683B685A683B68DB6800F087
:1026F400EBFB7B681B689B68BB60BB6843F077039C
:10270400BB607B681B68BA689A604FE07B68186896
:102714003B6899683B685A683B68DB6800F0D4FB07
:102724007B681B689A687B681B6842F480429A60E5
:102734003CE07B6818683B6859683B68DB681A466C
:1027440000F048FB7B681B685021184600F0A1FB91
:102754002CE07B6818683B6859683B68DB681A465C
:1027640000F067FB7B681B686021184600F091FB52
:102774001CE07B6818683B6859683B68DB681A464C
:1027840000F028FB7B681B684021184600F081FBA1
:102794000CE07B681A683B681B681946104600F019
:1027A40078FB03E00123FB7300E000BF7B68012298
:1027B40083F83D207B68002283F83C20FB7B18468D
:1027C4001037BD4680BD80B483B000AF786000BFD1
:1027D4000C37BD465DF8047B704780B483B000AF0E
:1027E400786000BF0C37BD465DF8047B704780B449
:1027F40083B000AF786000BF0C37BD465DF8047B42
:10280400704780B584B000AF78607B689B6BFB60D9
:10281400FB685B6A7A689A4207D1FB6801221A77DF
:10282400FB68012283F83E202AE0FB689B6A7A68F1
:102834009A4207D1FB6802221A77FB68012283F8C7
:102844003F201DE0FB68DB6A7A689A4207D1FB6887
:1028540004221A77FB68012283F8402010E0FB6809
:102864001B6B7A689A4207D1FB6808221A77FB68C7
:10287400012283F8412003E0FB68012283F83D2014
:10288400F868FFF7B4FFFB6800221A7700BF10371F
:10289400BD4680BD80B584B000AF78607B689B6B1B
:1028A400FB60FB685B6A7A689A420BD1FB68012281
:1028B4001A777B68DB69002B36D1FB68012283F829
:1028C4003E2031E0FB689B6A7A689A420BD1FB6830
:1028D40002221A777B68DB69002B25D1FB68012271
:1028E40083F83F2020E0FB68DB6A7A689A420BD1C8
:1028F400FB6804221A777B68DB69002B14D1FB6820
:10290400012283F840200FE0FB681B6B7A689A422F
:102914000AD1FB6808221A777B68DB69002B03D194
:10292400FB68012283F84120F868FFF74CFFFB683D
:1029340000221A7700BF1037BD4680BD80B584B031
:1029440000AF78607B689B6BFB60FB685B6A7A68AE
:102954009A4203D1FB6801221A7719E0FB689B6A4B
:102964007A689A4203D1FB6802221A7710E0FB6866
:10297400DB6A7A689A4203D1FB6804221A7707E07B
:10298400FB681B6B7A689A4202D1FB6808221A77AB
:10299400F868FFF722FFFB6800221A7700BF1037A0
:1029A400BD4680BD80B485B000AF786039607B6877
:1029B4001B68FB607B683A4A93420FD07B68B3F193
:1029C400804F0BD07B68374A934207D07B68364AE6
:1029D400934203D07B68354A934208D1FB6823F0C5
:1029E4007003FB603B685B68FA681343FB607B68B9
:1029F4002B4A93421BD07B68B3F1804F17D07B687E
:102A0400284A934213D07B68274A93420FD07B68AD
:102A1400264A93420BD07B68254A934207D07B68B1
:102A2400244A934203D07B68234A934208D1FB682B
:102A340023F44073FB603B68DB68FA681343FB6074
:102A4400FB6823F080023B685B691343FB607B688F
:102A5400FA681A603B689A687B68DA623B681A68AD
:102A64007B689A627B680E4A934203D13B681A6979
:102A74007B681A637B6801225A617B681B6903F0D7
:102A84000103012B05D17B681B6923F001027B68DC
:102A94001A6100BF1437BD465DF8047B704700BF60
:102AA400000001400004004000080040000C004009
:102AB40000400140004401400048014080B487B018
:102AC40000AF786039607B681B6A7B617B681B6A36
:102AD40023F001027B681A627B685B683B617B6858
:102AE4009B69FB60FB6823F07003FB60FB6823F0C9
:102AF4000303FB603B681B68FA681343FB607B6954
:102B040023F002037B613B689B687A6913437B6112
:102B14007B681C4A93420CD17B6923F008037B61D8
:102B24003B68DB687A6913437B617B6923F00403A8
:102B34007B617B68134A934211D13B6923F4807310
:102B44003B613B6923F400733B613B685B693A6911
:102B540013433B613B689B693A6913433B617B6860
:102B64003A695A607B68FA689A613B685A687B687C
:102B74005A637B687A691A6200BF1C37BD465DF8E8
:102B8400047B70470000014080B487B000AF7860D8
:102B940039607B681B6A7B617B681B6A23F01002C7
:102BA4007B681A627B685B683B617B689B69FB603E
:102BB400FB6823F4E043FB60FB6823F44073FB6091
:102BC4003B681B681B02FA681343FB607B6923F0B4
:102BD40020037B613B689B681B017A6913437B611B
:102BE4007B681E4A93420DD17B6923F080037B618D
:102BF4003B68DB681B017A6913437B617B6923F0C3
:102C040040037B617B68154A934213D13B6923F4EB
:102C140080633B613B6923F400633B613B685B6910
:102C24009B003A6913433B613B689B699B003A698B
:102C340013433B617B683A695A607B68FA689A611E
:102C44003B685A687B689A637B687A691A6200BF3A
:102C54001C37BD465DF8047B704700BF000001408F
:102C640080B487B000AF786039607B681B6A7B6191
:102C74007B681B6A23F480727B681A627B685B68DA
:102C84003B617B68DB69FB60FB6823F07003FB60DE
:102C9400FB6823F00303FB603B681B68FA6813437B
:102CA400FB607B6923F400737B613B689B681B02B8
:102CB4007A6913437B617B681D4A93420DD17B691A
:102CC40023F400637B613B68DB681B027A6913436E
:102CD4007B617B6923F480637B617B68144A934244
:102CE40013D13B6923F480533B613B6923F40053C4
:102CF4003B613B685B691B013A6913433B613B6879
:102D04009B691B013A6913433B617B683A695A60CA
:102D14007B68FA68DA613B685A687B68DA637B68C7
:102D24007A691A6200BF1C37BD465DF8047B7047A0
:102D34000000014080B487B000AF786039607B68E0
:102D44001B6A3B617B681B6A23F480527B681A62AE
:102D54007B685B687B617B68DB69FB60FB6823F4F1
:102D6400E043FB60FB6823F44073FB603B681B6833
:102D74001B02FA681343FB603B6923F400533B6175
:102D84003B689B681B033A6913433B617B68104AA9
:102D9400934209D17B6923F480437B613B685B697F
:102DA4009B017A6913437B617B687A695A607B680B
:102DB400FA68DA613B685A687B681A647B683A6926
:102DC4001A6200BF1C37BD465DF8047B704700BF24
:102DD4000000014080B487B000AFF860B9607A6049
:102DE400FB681B6A7B61FB681B6A23F00102FB68BA
:102DF4001A62FB689B693B613B6923F0F0033B610A
:102E04007B681B013A6913433B617B6923F00A0326
:102E14007B617A69BB6813437B61FB683A699A6199
:102E2400FB687A691A6200BF1C37BD465DF8047BF3
:102E3400704780B487B000AFF860B9607A60FB680F
:102E44001B6A7B61FB681B6A23F01002FB681A6231
:102E5400FB689B693B613B6923F470433B617B687E
:102E64001B033A6913433B617B6923F0A0037B6135
:102E7400BB681B017A6913437B61FB683A699A61F9
:102E8400FB687A691A6200BF1C37BD465DF8047B93
:102E9400704780B485B000AF786039607B689B6808
:102EA400FB60FB6823F07003FB603A68FB68134324
:102EB40043F00703FB607B68FA689A6000BF14372D
:102EC400BD465DF8047B704780B487B000AFF860FE
:102ED400B9607A603B60FB689B687B617B6923F423
:102EE4007F437B613B681A027B681A43BB681343C8
:102EF4007A6913437B61FB687A699A6000BF1C3767
:102F0400BD465DF8047B704780B487B000AFF860BD
:102F1400B9607A60BB6803F01F03012202FA03F36D
:102F24007B61FB681A6A7B69DB431A40FB681A629F
:102F3400FB681A6ABB6803F01F03796801FA03F39C
:102F44001A43FB681A6200BF1C37BD465DF8047B58
:102F54007047000080B485B000AF786039607B684A
:102F640093F83C30012B01D1022350E07B6801220D
:102F740083F83C207B68022283F83D207B681B6831
:102F84005B68FB607B681B689B68BB60FB6823F025
:102F94007003FB603B681B68FA681343FB607B6843
:102FA4001B68FA685A607B681B681C4A934218D0F5
:102FB4007B681B68B3F1804F13D07B681B68184A89
:102FC40093420ED07B681B68164A934209D07B68F3
:102FD4001B68154A934204D07B681B68134A9342CA
:102FE4000CD1BB6823F08003BB603B685B68BA68A4
:102FF4001343BB607B681B68BA689A607B680122D4
:1030040083F83D207B68002283F83C200023184687
:103014001437BD465DF8047B704700BF00000140D3
:103024000004004000080040000C00400040014043
:1030340080B485B000AF786039600023FB607B68A2
:1030440093F83C30012B01D102233DE07B6801223F
:1030540083F83C20FB6823F0FF023B68DB681343E2
:10306400FB60FB6823F440723B689B681343FB607E
:10307400FB6823F480623B685B681343FB60FB6876
:1030840023F400623B681B681343FB60FB6823F472
:1030940080523B681B691343FB60FB6823F40052B6
:1030A4003B685B691343FB60FB6823F480423B6825
:1030B400DB691343FB607B681B68FA685A647B68AE
:1030C400002283F83C20002318461437BD465DF8DF
:1030D400047B704702440346934200D1704703F8CF
:1030E400011BF9E770B50D4D0D4C641BA4100026AF
:1030F400A64209D10B4D0C4C00F018F8641BA41027
:103104000026A64205D170BD55F8043B9847013608
:10311400EEE755F8043B98470136F2E768310008BA
:1031240068310008683100086C310008F8B500BF48
:10313400F8BC08BC9E467047F8B500BFF8BC08BC94
:043144009E467047EC
:10314800000000000000000001020304060708094F
:08315800000610160006101617
:08316000A4D0FF7F0100000074
:04316800B9010008A1
:04316C0095010008C1
:0C3170000024F40010000000010000002A
:0400000508000A499C
:00000001FF
